:020000040800F2
:10000000380900205D0200086B0200086D0200083C
:100010006F0200087102000873020008000000006F
:100020000000000000000000000000007502000851
:100030007702000800000000790200087B02000837
:100040007D0200087D0200087D0200087D02000894
:100050007D0200087D0200087D0200087D02000884
:100060007D0200087D0200087D0200087D02000874
:100070007D0200087D0200087D0200087D02000864
:100080007D0200087D0200087D0200087D02000854
:100090007D0200087D0200087D0200087D02000844
:1000A0007D0200087D0200087D0200087D02000834
:1000B0007D0200087D0200087D0200087D02000824
:1000C0007D0200087D0200087D0200087D02000814
:1000D0007D020008590B00087D0200087D0200081F
:1000E0007D0200087D0200087D0200087D020008F4
:1000F0007D0200087D0200087D0200087D020008E4
:100100007D0200087D0200087D0200087D020008D3
:100110007D0200087D0200087D0200087D020008C3
:100120007D0200087D0200087D0200087D020008B3
:100130007D0200087D0200087D0200087D020008A3
:100140007D0200087D0200087D0200087D02000893
:100150007D0200087D0200087D0200087D02000883
:100160007D0200087D0200087D0200087D02000873
:100170007D0200087D0200087D02000800000000EA
:100180007D0200087D0200087D0200087D02000853
:100190007D0200087D0200087D0200087D02000843
:1001A0007D0200087D0200087D02000800F002F8D0
:1001B00000F044F80AA090E8000C82448344AAF1BD
:1001C0000107DA4501D100F039F8AFF2090EBAE8BB
:1001D0000F0013F0010F18BFFB1A43F0010318477B
:1001E000400D0000600D0000103A24BF78C878C1AF
:1001F000FAD8520724BF30C830C144BF04680C602D
:10020000704700000023002400250026103A28BF74
:1002100078C1FBD8520728BF30C148BF0B60704778
:10022000642900F07380782900F0AC8000207047CA
:100230001FB500F02FFE1FBD10B510BD00F0F6F980
:100240001146FFF7F5FF00F035FD00F014FA03B496
:10025000FFF7F2FF03BC00F0C6FC00000B4801688A
:1002600041F4700101600A480047FEE7FEE7FEE73F
:10027000FEE7FEE7FEE7FEE7FEE7FEE7FEE700003B
:1002800004480549034A054B7047000088ED00E02B
:10029000AD01000838010020380900203801002095
:1002A000704700000FB4044910B503AA029800F08B
:1002B0008FF910BC5DF814FB0800002070B50446EF
:1002C00085690068C10601D5302600E02026C007F8
:1002D00007D070BDD4E9012130469047206A401C08
:1002E00020626D1EF6D570BD70B504468569007834
:1002F000C00707D170BDD4E9012120209047206AB2
:10030000401C20626D1EF6D570BD00002DE9F04145
:100310000646002410687529314616A510D0AFF3A3
:100320000080002802DA404213A507E031688A07FE
:1003300001D512A502E0490704D511A5012401E069
:10034000AFF3008000210A2206F1240709E0B0FB88
:10035000F2FCB0FBF2F302FB1C003030785418467C
:10036000491C0028F3D123462A463046BDE8F04117
:1003700000F0D4B8000000002D0000002B000000A9
:100380002000000070B504460D4621461068AFF30A
:1003900000802188090502D50F4A7A4402E00E4AFE
:1003A0007A440E32002104F1240305E000F00F0628
:1003B0000009965D5E54491C0028F7D1207800237F
:1003C000000704D5702D02D009B102231132204656
:1003D000BDE8704000F0A2B8000B00002DE9F05F0E
:1003E000894604464FF0000ADFF824B1FB44C0F808
:1003F00020A02046E168884700287DD0252806D027
:10040000D4E901219047206A401C2062F1E70025D1
:100410005F462046E16888472028064607DB312EE4
:1004200005D2B81910F8200C08B10543F1E7A80768
:1004300001D525F00405C4F81CA00027C4F818A0B5
:100440002A2E09D0304600F0C7FB38B304EB8708EA
:10045000303EC8F8186019E059F8041B204604EB38
:1004600087029161E1688847012F064618D1E0694B
:10047000002820DA25F020051DE0D8F8180000EB50
:10048000800006EB40003038C8F818002046E168CC
:100490008847064600F0A0FB0028EED1012F0AD0C5
:1004A0002E2E08D12046E16888477F1C0646022F81
:1004B00045F02005C4DBA069002803DA404245F07E
:1004C0000105A061E80701D025F01005A6B1A6F14D
:1004D0004100192802D8203645F400654A463146C5
:1004E000204625604D46FFF79BFE60B1012807D0EE
:1004F000ED1D25F0070000E007E000F1080978E7AE
:1005000005F1040975E730467AE7206ABDE8F09FF7
:10051000D60A000070477047704770472DE9F047D2
:100520000D4699469246044600F124080168880663
:1005300004D5E06921F01001216000E00120A8420B
:1005400001DD471B00E00027A1697A1902EB0900D1
:10055000081AA0612078C00602D42046FFF7AEFE3C
:10056000002608E0D4E901211AF806009047206A25
:10057000401C761C20624E45F4DB2078C0060AD56C
:100580002046FFF79BFE06E0D4E90121302090478A
:10059000206A401C2062381EA7F10107F4DC07E046
:1005A000D4E9012118F805009047206A401C206218
:1005B000281EA5F10105F3DC2046FFF795FE207803
:1005C000000602D50220BDE8F0870120FBE700000D
:1005D000074B70B50D467B4400F011F804462846E1
:1005E00000F020F810B14FF0FF3070BD204670BD14
:1005F000BF06000001694A1C02610878704700B517
:100600008FB0CDE901310021059105497944CDE94B
:10061000031011466846FFF7E1FE0FB000BD000071
:10062000E5FFFFFF007B00F080007047754600F09B
:100630002BF8AE4605006946534620F00700854674
:1006400018B020B5FFF71CFEBDE820404FF00006B3
:100650004FF000074FF000084FF0000B21F00701AA
:10066000AC46ACE8C009ACE8C009ACE8C009ACE8ED
:10067000C0098D46704710B50446AFF30080204690
:10068000BDE81040FFF7E3BD00487047D8000020E8
:1006900030B5CC1000F1200353F824304C07E50EA0
:1006A0000F24AC40A343CD1000F1200444F82530C2
:1006B000CC1000F1200353F824304C07E40E02FA6A
:1006C00004F42343CD1000F1200444F8253030BD5C
:1006D0002DE9F0470C46DDE90867002100258C462E
:1006E00000BF60E04FF0010808FA01F504EA050CCC
:1006F000AC4557D1D0F800804FEA410A4FF00309CA
:1007000009FA0AF928EA0908C0F80080D0F8008040
:100710004FEA410902FA09F948EA0908C0F80080DD
:10072000012A01D0022A27D1D0F808804FEA410AD5
:100730004FF0030909FA0AF928EA0908C0F8088005
:10074000D0F808804FEA410906FA09F948EA090891
:10075000C0F80880D0F804904FF0010808FA01F8BA
:1007600029EA0809C0F80490D0F8048003FA01F9D6
:1007700048EA0908C0F80480D0F80C804FEA410A22
:100780004FF0030909FA0AF928EA0908C0F80C80B1
:10079000D0F80C804FEA410907FA09F948EA09083C
:1007A000C0F80C80491C10299CD3BDE8F0870000DC
:1007B0001CB51748006840F001001549086008465C
:1007C000006840F0040008600846006840F08000BF
:1007D0000860022000210B460A46CDE900100121E5
:1007E0000C48FFF775FF012000210B460A46CDE9B2
:1007F000001041030848FFF76BFF012000210B4662
:100800000A46CDE900100C210448FFF761FF1CBD2A
:10081000303802400000024000080240001C024044
:100820003EB5044614B101202B4908702A480278CD
:100830002A4800682A49D1F83412CDE90102009112
:100840002848D0F80832D0F80C2221462648FFF775
:1008500029FD2148007848B32448006850B1234856
:10086000001F006830B12248006818B11B480068BA
:1008700001281BD10A2000F0D5F900201649087084
:100880001A48006808B901203EBD1848001F0068DA
:1008900008B90220F8E71648006808B90320F3E712
:1008A0000E480068012814D10420EDE70F480068C5
:1008B00001280ED10D48001F0068012809D10C48FD
:1008C0000068012805D10548006810B901200249D7
:1008D00008700020D8E700000E000020000240420F
:1008E0000000414200804342D80E00080C8243427F
:1008F000340241421CB50B48006840F0020009492F
:1009000008600120032100230246CDE900100648BB
:10091000FFF7DEFE0120054908600549C1F88002A5
:100920001CBD000030380240000402408482404276
:10093000008040422DE9F0410746884614461D4696
:10094000284600F033F8C5F1040007FA00F60F203E
:10095000284100EA0800064306F00F06E21704EB00
:10096000D2625211920002F1E022D2F80021214617
:10097000E31704EBD3635B11A4EB431C012303FADD
:100980000CF31A432046E31704EBD3635B119B007F
:1009900003F1E023C3F800210348005D40EA06109C
:1009A00001490855BDE8F08100E400E00146072355
:1009B00023EA01021202054B18684FF6FF031840A4
:1009C000034B18431043014B186070470CED00E0D7
:1009D0000000FA054A0A52020243014B1A607047AE
:1009E00008ED00E0F0B504460D4616461F461448D3
:1009F000006840F0010012490860002010490831E9
:100A000008600F4800680F4908400D4908600E480B
:100A1000091D0860081F006820F48020091F086075
:100A2000002007490C3108603B46324629462046E3
:100A300000F00CF800210846FFF7CCFFF0BD0000E5
:100A400000380240FFFFF6FE10300024F0B50446E7
:100A50000D46002100203D4E366846F480363B4F5F
:100A60003E6001E04E1CB1B2384E366806F40036E6
:100A70001EB941F6FF76B142F4DB41F6FF76B14292
:100A800001D1012060E0314E4036366846F0805694
:100A90002E4F40373E602E4E366846F440462C4F6F
:100AA0003E602A4E0836366846F41446274F08370B
:100AB0003E60264E366826F08076244F3E6045EA3A
:100AC00084160127C7EB520746EA074646EA036643
:100AD00046F480061D4F3F1D3E603E1F366846F0BF
:100AE00080763F1F3E6000BF184E366806F00076E5
:100AF000002EF9D0174E366846F48076154F3E60CA
:100B00003E46366846F400763E603E46366846F419
:100B100080663E603E46366846F005063E600B4EF7
:100B20000836366826F00306084F08373E603E4612
:100B3000366846F002063E6000BF044E083636684E
:100B400006F00C06082EF8D1F0BD00000038024077
:100B500000700040003C02401C49096801F020017F
:100B600009B31A494968C8B21949098801F4004112
:100B7000C9B91749098801F4804161B10A2803D035
:100B80000021134A118020E01149098841F40041F5
:100B90000F4A118019E00D2806D10D49098841F44A
:100BA00080410B4A118010E009490988C1F30D0109
:100BB000084A505406490988491C054A11801146C3
:100BC0000988C72901DD002111807047001001400C
:100BD0000C0000201000002030380A2801D201202B
:100BE00070470020704700BF704700004FF0E021C1
:100BF000096921F004014FF0E0221161C21700EBF6
:100C00005272C2F3C702054B1A704FF47A71414316
:100C1000C1F3CF01024A118070470000020000209A
:100C20000400002070B504464FF4077094FBF0F008
:100C3000C6B24FF4077094FBF0F100FB114085B28F
:100C400005E04FF4077000F009F8701EC6B2002EE0
:100C5000F7D115B1284600F001F870BD01460D4AE4
:100C600012884A434FF0E0235A6100229A61012220
:100C70001A6100BF4FF0E022106900F001021AB1C2
:100C800000F48032002AF5D000224FF0E0231A61F0
:100C90009A6170470400002000BF054A126802F004
:100CA0004002002AF9D0C2B2014B5A6070470000DE
:100CB000001001400823022219214FF4B470FFF7FD
:100CC00091FEB420FFF792FF4FF4E1315A2000F07B
:100CD00061F8FFF70FFEFFF76BFD00202A4908605F
:100CE00051E00020FFF79CFD284908700846007875
:100CF000002845D00846007801282DD0022820D0B1
:100D0000032815D004283AD11F48001F006808B9ED
:100D1000012000E000201C49091F08601C48D0F891
:100D2000800208B9012000E000201749086026E091
:100D30001548006808B9012000E000201249086049
:100D40001DE01148001F006808B9012000E00020E4
:100D50000D49091F086012E00B48006808B901201E
:100D600000E00020084908600948D0F8800208B96E
:100D7000012000E000200449091F086000BF02E0D4
:100D80000A20FFF74FFFACE78482404200000020BA
:100D900000804042F0B52DED028B83B005460E4633
:100DA000384905FB01F000EE100AF8EE400A300168
:100DB00000EE100AB8EE400A80EE801AB0EE418ACA
:100DC000BCEEC80A10EE100A84B200EE104AB8EE6B
:100DD000400A38EE400AF3EE000A20EE200ABCEE8C
:100DE000C00A10EE107A4FF6FF7000EA0414E01902
:100DF00084B22548006840F0010023490860224879
:100E00001430006840F010001F49143108600120C0
:100E1000022100230A46CDE900104FF4C0611B48AF
:100E2000FFF756FC072209211848FFF731FC07227B
:100E30000A211648FFF72CFC15488460C06820F48E
:100E400000401349C8600846C06840F00800C86008
:100E50000846C06840F00400C8600846C06840F01A
:100E60002000C8600223252203210846FFF762FD07
:100E70000748C06840F400500549C86003B0BDECA5
:100E8000028BF0BD40420F003038024000000240AB
:100E9000001001404FF04070E1EE100A7047303111
:100EA0003233343536373839414243444546403091
:100EB0005800303132333435363738396162636443
:100EC0006566403078000400000800000000000063
:100ED00000020001000010006D6F64653A25642077
:100EE0004B4559303A307825303878204B455931C8
:100EF0003A307825303878204B4559323A307825C9
:100F000030387820574B5F55503A30782530387854
:100F1000206B65795F75703A2564200D0A0000002A
:100F2000400F00080000002010000000E801000849
:100F3000500F0008100000202809000004020008DB
:100F400000000000000000000000000000000100A0
:04000005080001AD41
:00000001FF
